{
	"hangga.sol": {
		"SafeMath": {
			"abi": [
				{
					"constant": true,
					"inputs": [
						{
							"name": "a",
							"type": "uint256"
						},
						{
							"name": "b",
							"type": "uint256"
						}
					],
					"name": "safeSub",
					"outputs": [
						{
							"name": "c",
							"type": "uint256"
						}
					],
					"payable": false,
					"stateMutability": "view",
					"type": "function"
				},
				{
					"constant": true,
					"inputs": [
						{
							"name": "a",
							"type": "uint256"
						},
						{
							"name": "b",
							"type": "uint256"
						}
					],
					"name": "safeDiv",
					"outputs": [
						{
							"name": "c",
							"type": "uint256"
						}
					],
					"payable": false,
					"stateMutability": "view",
					"type": "function"
				},
				{
					"constant": true,
					"inputs": [
						{
							"name": "a",
							"type": "uint256"
						},
						{
							"name": "b",
							"type": "uint256"
						}
					],
					"name": "safeMul",
					"outputs": [
						{
							"name": "c",
							"type": "uint256"
						}
					],
					"payable": false,
					"stateMutability": "view",
					"type": "function"
				},
				{
					"constant": true,
					"inputs": [
						{
							"name": "a",
							"type": "uint256"
						},
						{
							"name": "b",
							"type": "uint256"
						}
					],
					"name": "safeAdd",
					"outputs": [
						{
							"name": "c",
							"type": "uint256"
						}
					],
					"payable": false,
					"stateMutability": "view",
					"type": "function"
				}
			],
			"devdoc": {
				"methods": {}
			},
			"evm": {
				"assembly": "    /* \"hangga.sol\":663:1186  contract SafeMath {\r... */\n  mstore(0x40, 0x80)\n  callvalue\n    /* \"--CODEGEN--\":8:17   */\n  dup1\n    /* \"--CODEGEN--\":5:7   */\n  iszero\n  tag_1\n  jumpi\n    /* \"--CODEGEN--\":30:31   */\n  0x0\n    /* \"--CODEGEN--\":27:28   */\n  dup1\n    /* \"--CODEGEN--\":20:32   */\n  revert\n    /* \"--CODEGEN--\":5:7   */\ntag_1:\n    /* \"hangga.sol\":663:1186  contract SafeMath {\r... */\n  pop\n  dataSize(sub_0)\n  dup1\n  dataOffset(sub_0)\n  0x0\n  codecopy\n  0x0\n  return\nstop\n\nsub_0: assembly {\n        /* \"hangga.sol\":663:1186  contract SafeMath {\r... */\n      mstore(0x40, 0x80)\n      jumpi(tag_1, lt(calldatasize, 0x4))\n      calldataload(0x0)\n      0x100000000000000000000000000000000000000000000000000000000\n      swap1\n      div\n      0xffffffff\n      and\n      dup1\n      0xa293d1e8\n      eq\n      tag_2\n      jumpi\n      dup1\n      0xb5931f7c\n      eq\n      tag_3\n      jumpi\n      dup1\n      0xd05c78da\n      eq\n      tag_4\n      jumpi\n      dup1\n      0xe6cb9013\n      eq\n      tag_5\n      jumpi\n    tag_1:\n      0x0\n      dup1\n      revert\n        /* \"hangga.sol\":810:926  function safeSub(uint a, uint b) public pure returns (uint c) {\r... */\n    tag_2:\n      callvalue\n        /* \"--CODEGEN--\":8:17   */\n      dup1\n        /* \"--CODEGEN--\":5:7   */\n      iszero\n      tag_6\n      jumpi\n        /* \"--CODEGEN--\":30:31   */\n      0x0\n        /* \"--CODEGEN--\":27:28   */\n      dup1\n        /* \"--CODEGEN--\":20:32   */\n      revert\n        /* \"--CODEGEN--\":5:7   */\n    tag_6:\n        /* \"hangga.sol\":810:926  function safeSub(uint a, uint b) public pure returns (uint c) {\r... */\n      pop\n      tag_7\n      0x4\n      dup1\n      calldatasize\n      sub\n      dup2\n      add\n      swap1\n      dup1\n      dup1\n      calldataload\n      swap1\n      0x20\n      add\n      swap1\n      swap3\n      swap2\n      swap1\n      dup1\n      calldataload\n      swap1\n      0x20\n      add\n      swap1\n      swap3\n      swap2\n      swap1\n      pop\n      pop\n      pop\n      jump(tag_8)\n    tag_7:\n      mload(0x40)\n      dup1\n      dup3\n      dup2\n      mstore\n      0x20\n      add\n      swap2\n      pop\n      pop\n      mload(0x40)\n      dup1\n      swap2\n      sub\n      swap1\n      return\n        /* \"hangga.sol\":1068:1183  function safeDiv(uint a, uint b) public pure returns (uint c) {\r... */\n    tag_3:\n      callvalue\n        /* \"--CODEGEN--\":8:17   */\n      dup1\n        /* \"--CODEGEN--\":5:7   */\n      iszero\n      tag_9\n      jumpi\n        /* \"--CODEGEN--\":30:31   */\n      0x0\n        /* \"--CODEGEN--\":27:28   */\n      dup1\n        /* \"--CODEGEN--\":20:32   */\n      revert\n        /* \"--CODEGEN--\":5:7   */\n    tag_9:\n        /* \"hangga.sol\":1068:1183  function safeDiv(uint a, uint b) public pure returns (uint c) {\r... */\n      pop\n      tag_10\n      0x4\n      dup1\n      calldatasize\n      sub\n      dup2\n      add\n      swap1\n      dup1\n      dup1\n      calldataload\n      swap1\n      0x20\n      add\n      swap1\n      swap3\n      swap2\n      swap1\n      dup1\n      calldataload\n      swap1\n      0x20\n      add\n      swap1\n      swap3\n      swap2\n      swap1\n      pop\n      pop\n      pop\n      jump(tag_11)\n    tag_10:\n      mload(0x40)\n      dup1\n      dup3\n      dup2\n      mstore\n      0x20\n      add\n      swap2\n      pop\n      pop\n      mload(0x40)\n      dup1\n      swap2\n      sub\n      swap1\n      return\n        /* \"hangga.sol\":932:1062  function safeMul(uint a, uint b) public pure returns (uint c) {\r... */\n    tag_4:\n      callvalue\n        /* \"--CODEGEN--\":8:17   */\n      dup1\n        /* \"--CODEGEN--\":5:7   */\n      iszero\n      tag_12\n      jumpi\n        /* \"--CODEGEN--\":30:31   */\n      0x0\n        /* \"--CODEGEN--\":27:28   */\n      dup1\n        /* \"--CODEGEN--\":20:32   */\n      revert\n        /* \"--CODEGEN--\":5:7   */\n    tag_12:\n        /* \"hangga.sol\":932:1062  function safeMul(uint a, uint b) public pure returns (uint c) {\r... */\n      pop\n      tag_13\n      0x4\n      dup1\n      calldatasize\n      sub\n      dup2\n      add\n      swap1\n      dup1\n      dup1\n      calldataload\n      swap1\n      0x20\n      add\n      swap1\n      swap3\n      swap2\n      swap1\n      dup1\n      calldataload\n      swap1\n      0x20\n      add\n      swap1\n      swap3\n      swap2\n      swap1\n      pop\n      pop\n      pop\n      jump(tag_14)\n    tag_13:\n      mload(0x40)\n      dup1\n      dup3\n      dup2\n      mstore\n      0x20\n      add\n      swap2\n      pop\n      pop\n      mload(0x40)\n      dup1\n      swap2\n      sub\n      swap1\n      return\n        /* \"hangga.sol\":688:804  function safeAdd(uint a, uint b) public pure returns (uint c) {\r... */\n    tag_5:\n      callvalue\n        /* \"--CODEGEN--\":8:17   */\n      dup1\n        /* \"--CODEGEN--\":5:7   */\n      iszero\n      tag_15\n      jumpi\n        /* \"--CODEGEN--\":30:31   */\n      0x0\n        /* \"--CODEGEN--\":27:28   */\n      dup1\n        /* \"--CODEGEN--\":20:32   */\n      revert\n        /* \"--CODEGEN--\":5:7   */\n    tag_15:\n        /* \"hangga.sol\":688:804  function safeAdd(uint a, uint b) public pure returns (uint c) {\r... */\n      pop\n      tag_16\n      0x4\n      dup1\n      calldatasize\n      sub\n      dup2\n      add\n      swap1\n      dup1\n      dup1\n      calldataload\n      swap1\n      0x20\n      add\n      swap1\n      swap3\n      swap2\n      swap1\n      dup1\n      calldataload\n      swap1\n      0x20\n      add\n      swap1\n      swap3\n      swap2\n      swap1\n      pop\n      pop\n      pop\n      jump(tag_17)\n    tag_16:\n      mload(0x40)\n      dup1\n      dup3\n      dup2\n      mstore\n      0x20\n      add\n      swap2\n      pop\n      pop\n      mload(0x40)\n      dup1\n      swap2\n      sub\n      swap1\n      return\n        /* \"hangga.sol\":810:926  function safeSub(uint a, uint b) public pure returns (uint c) {\r... */\n    tag_8:\n        /* \"hangga.sol\":864:870  uint c */\n      0x0\n        /* \"hangga.sol\":896:897  a */\n      dup3\n        /* \"hangga.sol\":891:892  b */\n      dup3\n        /* \"hangga.sol\":891:897  b <= a */\n      gt\n      iszero\n        /* \"hangga.sol\":883:898  require(b <= a) */\n      iszero\n      iszero\n      tag_19\n      jumpi\n      0x0\n      dup1\n      revert\n    tag_19:\n        /* \"hangga.sol\":917:918  b */\n      dup2\n        /* \"hangga.sol\":913:914  a */\n      dup4\n        /* \"hangga.sol\":913:918  a - b */\n      sub\n        /* \"hangga.sol\":909:918  c = a - b */\n      swap1\n      pop\n        /* \"hangga.sol\":810:926  function safeSub(uint a, uint b) public pure returns (uint c) {\r... */\n      swap3\n      swap2\n      pop\n      pop\n      jump\t// out\n        /* \"hangga.sol\":1068:1183  function safeDiv(uint a, uint b) public pure returns (uint c) {\r... */\n    tag_11:\n        /* \"hangga.sol\":1122:1128  uint c */\n      0x0\n        /* \"hangga.sol\":1153:1154  0 */\n      dup1\n        /* \"hangga.sol\":1149:1150  b */\n      dup3\n        /* \"hangga.sol\":1149:1154  b > 0 */\n      gt\n        /* \"hangga.sol\":1141:1155  require(b > 0) */\n      iszero\n      iszero\n      tag_21\n      jumpi\n      0x0\n      dup1\n      revert\n    tag_21:\n        /* \"hangga.sol\":1174:1175  b */\n      dup2\n        /* \"hangga.sol\":1170:1171  a */\n      dup4\n        /* \"hangga.sol\":1170:1175  a / b */\n      dup2\n      iszero\n      iszero\n      tag_22\n      jumpi\n      invalid\n    tag_22:\n      div\n        /* \"hangga.sol\":1166:1175  c = a / b */\n      swap1\n      pop\n        /* \"hangga.sol\":1068:1183  function safeDiv(uint a, uint b) public pure returns (uint c) {\r... */\n      swap3\n      swap2\n      pop\n      pop\n      jump\t// out\n        /* \"hangga.sol\":932:1062  function safeMul(uint a, uint b) public pure returns (uint c) {\r... */\n    tag_14:\n        /* \"hangga.sol\":986:992  uint c */\n      0x0\n        /* \"hangga.sol\":1013:1014  b */\n      dup2\n        /* \"hangga.sol\":1009:1010  a */\n      dup4\n        /* \"hangga.sol\":1009:1014  a * b */\n      mul\n        /* \"hangga.sol\":1005:1014  c = a * b */\n      swap1\n      pop\n        /* \"hangga.sol\":1038:1039  0 */\n      0x0\n        /* \"hangga.sol\":1033:1034  a */\n      dup4\n        /* \"hangga.sol\":1033:1039  a == 0 */\n      eq\n        /* \"hangga.sol\":1033:1053  a == 0 || c / a == b */\n      dup1\n      tag_24\n      jumpi\n      pop\n        /* \"hangga.sol\":1052:1053  b */\n      dup2\n        /* \"hangga.sol\":1047:1048  a */\n      dup4\n        /* \"hangga.sol\":1043:1044  c */\n      dup3\n        /* \"hangga.sol\":1043:1048  c / a */\n      dup2\n      iszero\n      iszero\n      tag_25\n      jumpi\n      invalid\n    tag_25:\n      div\n        /* \"hangga.sol\":1043:1053  c / a == b */\n      eq\n        /* \"hangga.sol\":1033:1053  a == 0 || c / a == b */\n    tag_24:\n        /* \"hangga.sol\":1025:1054  require(a == 0 || c / a == b) */\n      iszero\n      iszero\n      tag_26\n      jumpi\n      0x0\n      dup1\n      revert\n    tag_26:\n        /* \"hangga.sol\":932:1062  function safeMul(uint a, uint b) public pure returns (uint c) {\r... */\n      swap3\n      swap2\n      pop\n      pop\n      jump\t// out\n        /* \"hangga.sol\":688:804  function safeAdd(uint a, uint b) public pure returns (uint c) {\r... */\n    tag_17:\n        /* \"hangga.sol\":742:748  uint c */\n      0x0\n        /* \"hangga.sol\":769:770  b */\n      dup2\n        /* \"hangga.sol\":765:766  a */\n      dup4\n        /* \"hangga.sol\":765:770  a + b */\n      add\n        /* \"hangga.sol\":761:770  c = a + b */\n      swap1\n      pop\n        /* \"hangga.sol\":794:795  a */\n      dup3\n        /* \"hangga.sol\":789:790  c */\n      dup2\n        /* \"hangga.sol\":789:795  c >= a */\n      lt\n      iszero\n        /* \"hangga.sol\":781:796  require(c >= a) */\n      iszero\n      iszero\n      tag_28\n      jumpi\n      0x0\n      dup1\n      revert\n    tag_28:\n        /* \"hangga.sol\":688:804  function safeAdd(uint a, uint b) public pure returns (uint c) {\r... */\n      swap3\n      swap2\n      pop\n      pop\n      jump\t// out\n\n    auxdata: 0xa165627a7a72305820c734a4548d2f9ca3122ea0d17ed1f15ea80b96f52bab01d16b21a747798392ad0029\n}\n",
				"bytecode": {
					"linkReferences": {},
					"object": "608060405234801561001057600080fd5b5061024c806100206000396000f300608060405260043610610062576000357c0100000000000000000000000000000000000000000000000000000000900463ffffffff168063a293d1e814610067578063b5931f7c146100b2578063d05c78da146100fd578063e6cb901314610148575b600080fd5b34801561007357600080fd5b5061009c6004803603810190808035906020019092919080359060200190929190505050610193565b6040518082815260200191505060405180910390f35b3480156100be57600080fd5b506100e760048036038101908080359060200190929190803590602001909291905050506101af565b6040518082815260200191505060405180910390f35b34801561010957600080fd5b5061013260048036038101908080359060200190929190803590602001909291905050506101d3565b6040518082815260200191505060405180910390f35b34801561015457600080fd5b5061017d6004803603810190808035906020019092919080359060200190929190505050610204565b6040518082815260200191505060405180910390f35b60008282111515156101a457600080fd5b818303905092915050565b600080821115156101bf57600080fd5b81838115156101ca57fe5b04905092915050565b6000818302905060008314806101f357508183828115156101f057fe5b04145b15156101fe57600080fd5b92915050565b6000818301905082811015151561021a57600080fd5b929150505600a165627a7a72305820c734a4548d2f9ca3122ea0d17ed1f15ea80b96f52bab01d16b21a747798392ad0029",
					"opcodes": "PUSH1 0x80 PUSH1 0x40 MSTORE CALLVALUE DUP1 ISZERO PUSH2 0x10 JUMPI PUSH1 0x0 DUP1 REVERT JUMPDEST POP PUSH2 0x24C DUP1 PUSH2 0x20 PUSH1 0x0 CODECOPY PUSH1 0x0 RETURN STOP PUSH1 0x80 PUSH1 0x40 MSTORE PUSH1 0x4 CALLDATASIZE LT PUSH2 0x62 JUMPI PUSH1 0x0 CALLDATALOAD PUSH29 0x100000000000000000000000000000000000000000000000000000000 SWAP1 DIV PUSH4 0xFFFFFFFF AND DUP1 PUSH4 0xA293D1E8 EQ PUSH2 0x67 JUMPI DUP1 PUSH4 0xB5931F7C EQ PUSH2 0xB2 JUMPI DUP1 PUSH4 0xD05C78DA EQ PUSH2 0xFD JUMPI DUP1 PUSH4 0xE6CB9013 EQ PUSH2 0x148 JUMPI JUMPDEST PUSH1 0x0 DUP1 REVERT JUMPDEST CALLVALUE DUP1 ISZERO PUSH2 0x73 JUMPI PUSH1 0x0 DUP1 REVERT JUMPDEST POP PUSH2 0x9C PUSH1 0x4 DUP1 CALLDATASIZE SUB DUP2 ADD SWAP1 DUP1 DUP1 CALLDATALOAD SWAP1 PUSH1 0x20 ADD SWAP1 SWAP3 SWAP2 SWAP1 DUP1 CALLDATALOAD SWAP1 PUSH1 0x20 ADD SWAP1 SWAP3 SWAP2 SWAP1 POP POP POP PUSH2 0x193 JUMP JUMPDEST PUSH1 0x40 MLOAD DUP1 DUP3 DUP2 MSTORE PUSH1 0x20 ADD SWAP2 POP POP PUSH1 0x40 MLOAD DUP1 SWAP2 SUB SWAP1 RETURN JUMPDEST CALLVALUE DUP1 ISZERO PUSH2 0xBE JUMPI PUSH1 0x0 DUP1 REVERT JUMPDEST POP PUSH2 0xE7 PUSH1 0x4 DUP1 CALLDATASIZE SUB DUP2 ADD SWAP1 DUP1 DUP1 CALLDATALOAD SWAP1 PUSH1 0x20 ADD SWAP1 SWAP3 SWAP2 SWAP1 DUP1 CALLDATALOAD SWAP1 PUSH1 0x20 ADD SWAP1 SWAP3 SWAP2 SWAP1 POP POP POP PUSH2 0x1AF JUMP JUMPDEST PUSH1 0x40 MLOAD DUP1 DUP3 DUP2 MSTORE PUSH1 0x20 ADD SWAP2 POP POP PUSH1 0x40 MLOAD DUP1 SWAP2 SUB SWAP1 RETURN JUMPDEST CALLVALUE DUP1 ISZERO PUSH2 0x109 JUMPI PUSH1 0x0 DUP1 REVERT JUMPDEST POP PUSH2 0x132 PUSH1 0x4 DUP1 CALLDATASIZE SUB DUP2 ADD SWAP1 DUP1 DUP1 CALLDATALOAD SWAP1 PUSH1 0x20 ADD SWAP1 SWAP3 SWAP2 SWAP1 DUP1 CALLDATALOAD SWAP1 PUSH1 0x20 ADD SWAP1 SWAP3 SWAP2 SWAP1 POP POP POP PUSH2 0x1D3 JUMP JUMPDEST PUSH1 0x40 MLOAD DUP1 DUP3 DUP2 MSTORE PUSH1 0x20 ADD SWAP2 POP POP PUSH1 0x40 MLOAD DUP1 SWAP2 SUB SWAP1 RETURN JUMPDEST CALLVALUE DUP1 ISZERO PUSH2 0x154 JUMPI PUSH1 0x0 DUP1 REVERT JUMPDEST POP PUSH2 0x17D PUSH1 0x4 DUP1 CALLDATASIZE SUB DUP2 ADD SWAP1 DUP1 DUP1 CALLDATALOAD SWAP1 PUSH1 0x20 ADD SWAP1 SWAP3 SWAP2 SWAP1 DUP1 CALLDATALOAD SWAP1 PUSH1 0x20 ADD SWAP1 SWAP3 SWAP2 SWAP1 POP POP POP PUSH2 0x204 JUMP JUMPDEST PUSH1 0x40 MLOAD DUP1 DUP3 DUP2 MSTORE PUSH1 0x20 ADD SWAP2 POP POP PUSH1 0x40 MLOAD DUP1 SWAP2 SUB SWAP1 RETURN JUMPDEST PUSH1 0x0 DUP3 DUP3 GT ISZERO ISZERO ISZERO PUSH2 0x1A4 JUMPI PUSH1 0x0 DUP1 REVERT JUMPDEST DUP2 DUP4 SUB SWAP1 POP SWAP3 SWAP2 POP POP JUMP JUMPDEST PUSH1 0x0 DUP1 DUP3 GT ISZERO ISZERO PUSH2 0x1BF JUMPI PUSH1 0x0 DUP1 REVERT JUMPDEST DUP2 DUP4 DUP2 ISZERO ISZERO PUSH2 0x1CA JUMPI INVALID JUMPDEST DIV SWAP1 POP SWAP3 SWAP2 POP POP JUMP JUMPDEST PUSH1 0x0 DUP2 DUP4 MUL SWAP1 POP PUSH1 0x0 DUP4 EQ DUP1 PUSH2 0x1F3 JUMPI POP DUP2 DUP4 DUP3 DUP2 ISZERO ISZERO PUSH2 0x1F0 JUMPI INVALID JUMPDEST DIV EQ JUMPDEST ISZERO ISZERO PUSH2 0x1FE JUMPI PUSH1 0x0 DUP1 REVERT JUMPDEST SWAP3 SWAP2 POP POP JUMP JUMPDEST PUSH1 0x0 DUP2 DUP4 ADD SWAP1 POP DUP3 DUP2 LT ISZERO ISZERO ISZERO PUSH2 0x21A JUMPI PUSH1 0x0 DUP1 REVERT JUMPDEST SWAP3 SWAP2 POP POP JUMP STOP LOG1 PUSH6 0x627A7A723058 KECCAK256 0xc7 CALLVALUE LOG4 SLOAD DUP14 0x2f SWAP13 LOG3 SLT 0x2e LOG0 0xd1 PUSH31 0xD1F15EA80B96F52BAB01D16B21A747798392AD002900000000000000000000 "
				},
				"gasEstimates": {
					"creation": {
						"codeDepositCost": "117600",
						"executionCost": "165",
						"totalCost": "117765"
					},
					"external": {
						"safeAdd(uint256,uint256)": "396",
						"safeDiv(uint256,uint256)": "374",
						"safeMul(uint256,uint256)": "432",
						"safeSub(uint256,uint256)": "330"
					}
				},
				"methodIdentifiers": {
					"safeAdd(uint256,uint256)": "e6cb9013",
					"safeDiv(uint256,uint256)": "b5931f7c",
					"safeMul(uint256,uint256)": "d05c78da",
					"safeSub(uint256,uint256)": "a293d1e8"
				}
			},
			"userdoc": {
				"methods": {}
			}
		}
	}
}